{
  "address": "0x82AdB9C597f457f9472139d03A7177654B9d7b80",
  "abi": [
    {
      "inputs": [
        {
          "internalType": "contract IQualifiedInvestorGroth16Verifier",
          "name": "verifier_",
          "type": "address"
        }
      ],
      "stateMutability": "nonpayable",
      "type": "constructor"
    },
    {
      "inputs": [
        {
          "internalType": "address",
          "name": "owner",
          "type": "address"
        }
      ],
      "name": "OwnableInvalidOwner",
      "type": "error"
    },
    {
      "inputs": [
        {
          "internalType": "address",
          "name": "account",
          "type": "address"
        }
      ],
      "name": "OwnableUnauthorizedAccount",
      "type": "error"
    },
    {
      "anonymous": false,
      "inputs": [
        {
          "indexed": true,
          "internalType": "uint256",
          "name": "commitment",
          "type": "uint256"
        }
      ],
      "name": "CommitmentRegistered",
      "type": "event"
    },
    {
      "anonymous": false,
      "inputs": [
        {
          "indexed": true,
          "internalType": "uint256",
          "name": "commitment",
          "type": "uint256"
        }
      ],
      "name": "CommitmentRevoked",
      "type": "event"
    },
    {
      "anonymous": false,
      "inputs": [
        {
          "indexed": true,
          "internalType": "address",
          "name": "previousOwner",
          "type": "address"
        },
        {
          "indexed": true,
          "internalType": "address",
          "name": "newOwner",
          "type": "address"
        }
      ],
      "name": "OwnershipTransferred",
      "type": "event"
    },
    {
      "anonymous": false,
      "inputs": [
        {
          "indexed": true,
          "internalType": "address",
          "name": "account",
          "type": "address"
        },
        {
          "indexed": true,
          "internalType": "uint256",
          "name": "commitment",
          "type": "uint256"
        },
        {
          "indexed": true,
          "internalType": "uint256",
          "name": "nullifierHash",
          "type": "uint256"
        }
      ],
      "name": "QualificationProved",
      "type": "event"
    },
    {
      "inputs": [],
      "name": "QUALIFIED_ASSET_THRESHOLD_USDC",
      "outputs": [
        {
          "internalType": "uint256",
          "name": "",
          "type": "uint256"
        }
      ],
      "stateMutability": "view",
      "type": "function"
    },
    {
      "inputs": [
        {
          "internalType": "address",
          "name": "account",
          "type": "address"
        }
      ],
      "name": "isQualified",
      "outputs": [
        {
          "internalType": "bool",
          "name": "",
          "type": "bool"
        }
      ],
      "stateMutability": "view",
      "type": "function"
    },
    {
      "inputs": [],
      "name": "owner",
      "outputs": [
        {
          "internalType": "address",
          "name": "",
          "type": "address"
        }
      ],
      "stateMutability": "view",
      "type": "function"
    },
    {
      "inputs": [
        {
          "internalType": "uint256[2]",
          "name": "a",
          "type": "uint256[2]"
        },
        {
          "internalType": "uint256[2][2]",
          "name": "b",
          "type": "uint256[2][2]"
        },
        {
          "internalType": "uint256[2]",
          "name": "c",
          "type": "uint256[2]"
        },
        {
          "internalType": "uint256[4]",
          "name": "input",
          "type": "uint256[4]"
        }
      ],
      "name": "proveQualified",
      "outputs": [],
      "stateMutability": "nonpayable",
      "type": "function"
    },
    {
      "inputs": [
        {
          "internalType": "uint256",
          "name": "commitment",
          "type": "uint256"
        }
      ],
      "name": "registerCommitment",
      "outputs": [],
      "stateMutability": "nonpayable",
      "type": "function"
    },
    {
      "inputs": [],
      "name": "renounceOwnership",
      "outputs": [],
      "stateMutability": "nonpayable",
      "type": "function"
    },
    {
      "inputs": [
        {
          "internalType": "uint256",
          "name": "commitment",
          "type": "uint256"
        }
      ],
      "name": "revokeCommitment",
      "outputs": [],
      "stateMutability": "nonpayable",
      "type": "function"
    },
    {
      "inputs": [
        {
          "internalType": "address",
          "name": "newOwner",
          "type": "address"
        }
      ],
      "name": "transferOwnership",
      "outputs": [],
      "stateMutability": "nonpayable",
      "type": "function"
    },
    {
      "inputs": [
        {
          "internalType": "uint256",
          "name": "nullifierHash",
          "type": "uint256"
        }
      ],
      "name": "usedNullifiers",
      "outputs": [
        {
          "internalType": "bool",
          "name": "used",
          "type": "bool"
        }
      ],
      "stateMutability": "view",
      "type": "function"
    },
    {
      "inputs": [
        {
          "internalType": "uint256",
          "name": "commitment",
          "type": "uint256"
        }
      ],
      "name": "validCommitments",
      "outputs": [
        {
          "internalType": "bool",
          "name": "valid",
          "type": "bool"
        }
      ],
      "stateMutability": "view",
      "type": "function"
    },
    {
      "inputs": [],
      "name": "verifier",
      "outputs": [
        {
          "internalType": "contract IQualifiedInvestorGroth16Verifier",
          "name": "",
          "type": "address"
        }
      ],
      "stateMutability": "view",
      "type": "function"
    }
  ],
  "transactionHash": "0x18120a7b0f689cd815cbfa026481a3e5cebc8b00d7b41970ce6f2e504b9d65fe",
  "args": [
    "0x19A144140CCFF8d1FB337EA990a739A81861aDEB"
  ],
  "numDeployments": 2,
  "solcInputHash": "58a9b6bc88871e6abe3905e35d756f6b",
  "bytecode": "0x60a060405234801561000f575f5ffd5b5060405161091e38038061091e83398101604081905261002e91610114565b338061005457604051631e4fbdf760e01b81525f60048201526024015b60405180910390fd5b61005d816100c5565b506001600160a01b0381166100b45760405162461bcd60e51b815260206004820152601760248201527f72656769737472793a207a65726f207665726966696572000000000000000000604482015260640161004b565b6001600160a01b0316608052610141565b5f80546001600160a01b038381166001600160a01b0319831681178455604051919092169283917f8be0079c531659141344cd1fd0a4f28419497f9722a3daafe3b4186f6b6457e09190a35050565b5f60208284031215610124575f5ffd5b81516001600160a01b038116811461013a575f5ffd5b9392505050565b6080516107bf61015f5f395f818160cd01526104c101526107bf5ff3fe608060405234801561000f575f5ffd5b50600436106100c4575f3560e01c8063912715f51161007d578063eaaca8f511610058578063eaaca8f5146101d2578063f2fde38b146101e5578063fceb3bd8146101f8575f5ffd5b8063912715f51461016b578063a421d66814610185578063aad24061146101b0575f5ffd5b806338ce9dfc116100ad57806338ce9dfc1461013e578063715018a6146101535780638da5cb5b1461015b575f5ffd5b80632b7ac3f3146100c857806333e5bc321461010c575b5f5ffd5b6100ef7f000000000000000000000000000000000000000000000000000000000000000081565b6040516001600160a01b0390911681526020015b60405180910390f35b61012e61011a366004610683565b60016020525f908152604090205460ff1681565b6040519015158152602001610103565b61015161014c366004610683565b61020b565b005b610151610252565b5f546001600160a01b03166100ef565b61017764e8d4a5100081565b604051908152602001610103565b61012e61019336600461069a565b6001600160a01b03165f9081526003602052604090205460ff1690565b61012e6101be366004610683565b60026020525f908152604090205460ff1681565b6101516101e0366004610683565b610265565b6101516101f336600461069a565b6102fe565b6101516102063660046106ed565b61033b565b6102136105f0565b5f81815260016020526040808220805460ff191690555182917f88bf64e788542710ef5afedc273ea16a95e349afe742ebc8dfda1761fa8889ba91a250565b61025a6105f0565b6102635f61061c565b565b805f036102b95760405162461bcd60e51b815260206004820152601a60248201527f72656769737472793a20656d70747920636f6d6d69746d656e7400000000000060448201526064015b60405180910390fd5b5f818152600160208190526040808320805460ff19169092179091555182917fed37baf18499ae7c458c8755a2b32dcd9b9c3dfff6c205b551b53b3b393982e991a250565b6103066105f0565b6001600160a01b03811661032f57604051631e4fbdf760e01b81525f60048201526024016102b0565b6103388161061c565b50565b803560208201356040830135606084013564e8d4a5100083146103a05760405162461bcd60e51b815260206004820152601760248201527f72656769737472793a20626164207468726573686f6c6400000000000000000060448201526064016102b0565b3382146103ef5760405162461bcd60e51b815260206004820152601460248201527f72656769737472793a2077726f6e67207573657200000000000000000000000060448201526064016102b0565b5f8481526001602052604090205460ff1661044c5760405162461bcd60e51b815260206004820152601c60248201527f72656769737472793a20696e76616c696420636f6d6d69746d656e740000000060448201526064016102b0565b5f8181526002602052604090205460ff16156104aa5760405162461bcd60e51b815260206004820152601860248201527f72656769737472793a206e756c6c69666965722075736564000000000000000060448201526064016102b0565b604051635fe8c13b60e01b81526001600160a01b037f00000000000000000000000000000000000000000000000000000000000000001690635fe8c13b906104fc908b908b908b908b90600401610744565b602060405180830381865afa158015610517573d5f5f3e3d5ffd5b505050506040513d601f19601f8201168201806040525081019061053b9190610793565b6105875760405162461bcd60e51b815260206004820152601760248201527f72656769737472793a20696e76616c69642070726f6f6600000000000000000060448201526064016102b0565b5f8181526002602090815260408083208054600160ff199182168117909255338086526003909452828520805490911690911790555183928792917fa91dab1113acb6b8df670d351171a71467f42ed99b63532f7fdedb1f4d7e5f479190a45050505050505050565b5f546001600160a01b031633146102635760405163118cdaa760e01b81523360048201526024016102b0565b5f80546001600160a01b038381167fffffffffffffffffffffffff0000000000000000000000000000000000000000831681178455604051919092169283917f8be0079c531659141344cd1fd0a4f28419497f9722a3daafe3b4186f6b6457e09190a35050565b5f60208284031215610693575f5ffd5b5035919050565b5f602082840312156106aa575f5ffd5b81356001600160a01b03811681146106c0575f5ffd5b9392505050565b80604081018310156106d7575f5ffd5b92915050565b80608081018310156106d7575f5ffd5b5f5f5f5f6101808587031215610701575f5ffd5b61070b86866106c7565b935061071a86604087016106dd565b92506107298660c087016106c7565b91506107398661010087016106dd565b905092959194509250565b6101808101604086833760408201855f5b60028110156107765760408284376040928301929190910190600101610755565b50505060408460c084013760808361010084013795945050505050565b5f602082840312156107a3575f5ffd5b815180151581146106c0575f5ffdfea164736f6c634300081b000a",
  "devdoc": {
    "errors": {
      "OwnableInvalidOwner(address)": [
        {
          "details": "The owner is not a valid owner account. (eg. `address(0)`)"
        }
      ],
      "OwnableUnauthorizedAccount(address)": [
        {
          "details": "The caller account is not authorized to perform an operation."
        }
      ]
    },
    "kind": "dev",
    "methods": {
      "owner()": {
        "details": "Returns the address of the current owner."
      },
      "renounceOwnership()": {
        "details": "Leaves the contract without owner. It will not be possible to call `onlyOwner` functions. Can only be called by the current owner. NOTE: Renouncing ownership will leave the contract without an owner, thereby disabling any functionality that is only available to the owner."
      },
      "transferOwnership(address)": {
        "details": "Transfers ownership of the contract to a new account (`newOwner`). Can only be called by the current owner."
      }
    },
    "version": 1
  },
  "userdoc": {
    "kind": "user",
    "methods": {},
    "version": 1
  },
  "storageLayout": {
    "storage": [
      {
        "astId": 8,
        "contract": "contracts/zk/Groth16QualifiedInvestorRegistry.sol:Groth16QualifiedInvestorRegistry",
        "label": "_owner",
        "offset": 0,
        "slot": "0",
        "type": "t_address"
      },
      {
        "astId": 209,
        "contract": "contracts/zk/Groth16QualifiedInvestorRegistry.sol:Groth16QualifiedInvestorRegistry",
        "label": "validCommitments",
        "offset": 0,
        "slot": "1",
        "type": "t_mapping(t_uint256,t_bool)"
      },
      {
        "astId": 213,
        "contract": "contracts/zk/Groth16QualifiedInvestorRegistry.sol:Groth16QualifiedInvestorRegistry",
        "label": "usedNullifiers",
        "offset": 0,
        "slot": "2",
        "type": "t_mapping(t_uint256,t_bool)"
      },
      {
        "astId": 217,
        "contract": "contracts/zk/Groth16QualifiedInvestorRegistry.sol:Groth16QualifiedInvestorRegistry",
        "label": "_qualified",
        "offset": 0,
        "slot": "3",
        "type": "t_mapping(t_address,t_bool)"
      }
    ],
    "types": {
      "t_address": {
        "encoding": "inplace",
        "label": "address",
        "numberOfBytes": "20"
      },
      "t_bool": {
        "encoding": "inplace",
        "label": "bool",
        "numberOfBytes": "1"
      },
      "t_mapping(t_address,t_bool)": {
        "encoding": "mapping",
        "key": "t_address",
        "label": "mapping(address => bool)",
        "numberOfBytes": "32",
        "value": "t_bool"
      },
      "t_mapping(t_uint256,t_bool)": {
        "encoding": "mapping",
        "key": "t_uint256",
        "label": "mapping(uint256 => bool)",
        "numberOfBytes": "32",
        "value": "t_bool"
      },
      "t_uint256": {
        "encoding": "inplace",
        "label": "uint256",
        "numberOfBytes": "32"
      }
    }
  }
}