{
  "address": "0xb4043F5fFF30e4f0e03E5b4c1e39941Bd81e585B",
  "abi": [
    {
      "inputs": [],
      "stateMutability": "nonpayable",
      "type": "constructor"
    },
    {
      "inputs": [
        {
          "internalType": "address",
          "name": "owner",
          "type": "address"
        }
      ],
      "name": "OwnableInvalidOwner",
      "type": "error"
    },
    {
      "inputs": [
        {
          "internalType": "address",
          "name": "account",
          "type": "address"
        }
      ],
      "name": "OwnableUnauthorizedAccount",
      "type": "error"
    },
    {
      "anonymous": false,
      "inputs": [
        {
          "indexed": true,
          "internalType": "address",
          "name": "user",
          "type": "address"
        },
        {
          "indexed": true,
          "internalType": "uint256",
          "name": "productId",
          "type": "uint256"
        },
        {
          "indexed": false,
          "internalType": "uint64",
          "name": "depositCount",
          "type": "uint64"
        }
      ],
      "name": "DepositRecorded",
      "type": "event"
    },
    {
      "anonymous": false,
      "inputs": [
        {
          "indexed": true,
          "internalType": "address",
          "name": "previousOwner",
          "type": "address"
        },
        {
          "indexed": true,
          "internalType": "address",
          "name": "newOwner",
          "type": "address"
        }
      ],
      "name": "OwnershipTransferred",
      "type": "event"
    },
    {
      "anonymous": false,
      "inputs": [
        {
          "indexed": true,
          "internalType": "uint256",
          "name": "productId",
          "type": "uint256"
        },
        {
          "indexed": false,
          "internalType": "string",
          "name": "name",
          "type": "string"
        },
        {
          "indexed": false,
          "internalType": "string",
          "name": "category",
          "type": "string"
        },
        {
          "indexed": false,
          "internalType": "string",
          "name": "issuer",
          "type": "string"
        }
      ],
      "name": "ProductListed",
      "type": "event"
    },
    {
      "anonymous": false,
      "inputs": [
        {
          "indexed": true,
          "internalType": "uint256",
          "name": "productId",
          "type": "uint256"
        },
        {
          "indexed": false,
          "internalType": "bool",
          "name": "active",
          "type": "bool"
        }
      ],
      "name": "ProductStatusChanged",
      "type": "event"
    },
    {
      "anonymous": false,
      "inputs": [
        {
          "indexed": true,
          "internalType": "address",
          "name": "vault",
          "type": "address"
        }
      ],
      "name": "VaultSet",
      "type": "event"
    },
    {
      "anonymous": false,
      "inputs": [
        {
          "indexed": true,
          "internalType": "uint256",
          "name": "productId",
          "type": "uint256"
        },
        {
          "indexed": false,
          "internalType": "uint16",
          "name": "aprBps",
          "type": "uint16"
        },
        {
          "indexed": false,
          "internalType": "uint48",
          "name": "timestamp",
          "type": "uint48"
        }
      ],
      "name": "YieldRatePublished",
      "type": "event"
    },
    {
      "inputs": [],
      "name": "MAX_APR_BPS",
      "outputs": [
        {
          "internalType": "uint16",
          "name": "",
          "type": "uint16"
        }
      ],
      "stateMutability": "view",
      "type": "function"
    },
    {
      "inputs": [
        {
          "internalType": "uint256",
          "name": "productId",
          "type": "uint256"
        }
      ],
      "name": "depositCountByProduct",
      "outputs": [
        {
          "internalType": "uint64",
          "name": "deposits",
          "type": "uint64"
        }
      ],
      "stateMutability": "view",
      "type": "function"
    },
    {
      "inputs": [
        {
          "internalType": "uint256",
          "name": "productId",
          "type": "uint256"
        }
      ],
      "name": "getProduct",
      "outputs": [
        {
          "components": [
            {
              "internalType": "uint256",
              "name": "id",
              "type": "uint256"
            },
            {
              "internalType": "string",
              "name": "name",
              "type": "string"
            },
            {
              "internalType": "string",
              "name": "category",
              "type": "string"
            },
            {
              "internalType": "string",
              "name": "issuer",
              "type": "string"
            },
            {
              "internalType": "uint16",
              "name": "currentAprBps",
              "type": "uint16"
            },
            {
              "internalType": "uint48",
              "name": "lastRateUpdate",
              "type": "uint48"
            },
            {
              "internalType": "bool",
              "name": "active",
              "type": "bool"
            }
          ],
          "internalType": "struct YieldProductMarket.Product",
          "name": "",
          "type": "tuple"
        }
      ],
      "stateMutability": "view",
      "type": "function"
    },
    {
      "inputs": [],
      "name": "getProducts",
      "outputs": [
        {
          "components": [
            {
              "internalType": "uint256",
              "name": "id",
              "type": "uint256"
            },
            {
              "internalType": "string",
              "name": "name",
              "type": "string"
            },
            {
              "internalType": "string",
              "name": "category",
              "type": "string"
            },
            {
              "internalType": "string",
              "name": "issuer",
              "type": "string"
            },
            {
              "internalType": "uint16",
              "name": "currentAprBps",
              "type": "uint16"
            },
            {
              "internalType": "uint48",
              "name": "lastRateUpdate",
              "type": "uint48"
            },
            {
              "internalType": "bool",
              "name": "active",
              "type": "bool"
            }
          ],
          "internalType": "struct YieldProductMarket.Product[]",
          "name": "products",
          "type": "tuple[]"
        }
      ],
      "stateMutability": "view",
      "type": "function"
    },
    {
      "inputs": [
        {
          "internalType": "uint256",
          "name": "productId",
          "type": "uint256"
        }
      ],
      "name": "isActive",
      "outputs": [
        {
          "internalType": "bool",
          "name": "",
          "type": "bool"
        }
      ],
      "stateMutability": "view",
      "type": "function"
    },
    {
      "inputs": [
        {
          "internalType": "string",
          "name": "name",
          "type": "string"
        },
        {
          "internalType": "string",
          "name": "category",
          "type": "string"
        },
        {
          "internalType": "string",
          "name": "issuer",
          "type": "string"
        },
        {
          "internalType": "uint16",
          "name": "aprBps",
          "type": "uint16"
        }
      ],
      "name": "listProduct",
      "outputs": [
        {
          "internalType": "uint256",
          "name": "productId",
          "type": "uint256"
        }
      ],
      "stateMutability": "nonpayable",
      "type": "function"
    },
    {
      "inputs": [],
      "name": "owner",
      "outputs": [
        {
          "internalType": "address",
          "name": "",
          "type": "address"
        }
      ],
      "stateMutability": "view",
      "type": "function"
    },
    {
      "inputs": [],
      "name": "productCount",
      "outputs": [
        {
          "internalType": "uint256",
          "name": "",
          "type": "uint256"
        }
      ],
      "stateMutability": "view",
      "type": "function"
    },
    {
      "inputs": [
        {
          "internalType": "uint256",
          "name": "productId",
          "type": "uint256"
        },
        {
          "internalType": "uint16",
          "name": "aprBps",
          "type": "uint16"
        }
      ],
      "name": "publishYieldRate",
      "outputs": [],
      "stateMutability": "nonpayable",
      "type": "function"
    },
    {
      "inputs": [
        {
          "internalType": "address",
          "name": "user",
          "type": "address"
        },
        {
          "internalType": "uint256",
          "name": "productId",
          "type": "uint256"
        }
      ],
      "name": "recordDeposit",
      "outputs": [],
      "stateMutability": "nonpayable",
      "type": "function"
    },
    {
      "inputs": [],
      "name": "renounceOwnership",
      "outputs": [],
      "stateMutability": "nonpayable",
      "type": "function"
    },
    {
      "inputs": [
        {
          "internalType": "uint256",
          "name": "productId",
          "type": "uint256"
        },
        {
          "internalType": "bool",
          "name": "active",
          "type": "bool"
        }
      ],
      "name": "setProductActive",
      "outputs": [],
      "stateMutability": "nonpayable",
      "type": "function"
    },
    {
      "inputs": [
        {
          "internalType": "address",
          "name": "newVault",
          "type": "address"
        }
      ],
      "name": "setVault",
      "outputs": [],
      "stateMutability": "nonpayable",
      "type": "function"
    },
    {
      "inputs": [
        {
          "internalType": "address",
          "name": "newOwner",
          "type": "address"
        }
      ],
      "name": "transferOwnership",
      "outputs": [],
      "stateMutability": "nonpayable",
      "type": "function"
    },
    {
      "inputs": [
        {
          "internalType": "address",
          "name": "user",
          "type": "address"
        },
        {
          "internalType": "uint256",
          "name": "productId",
          "type": "uint256"
        }
      ],
      "name": "userDepositCount",
      "outputs": [
        {
          "internalType": "uint64",
          "name": "deposits",
          "type": "uint64"
        }
      ],
      "stateMutability": "view",
      "type": "function"
    },
    {
      "inputs": [],
      "name": "vault",
      "outputs": [
        {
          "internalType": "address",
          "name": "",
          "type": "address"
        }
      ],
      "stateMutability": "view",
      "type": "function"
    }
  ],
  "transactionHash": "0xa4f94abba988e1d7b1fce704a69f37ae29581335566dbd0769d48192240275b3",
  "args": [],
  "numDeployments": 2,
  "solcInputHash": "f476ad7ecac7ad53d8d4149cc531d251",
  "bytecode": "0x608060405234801561000f575f5ffd5b50338061003657604051631e4fbdf760e01b81525f60048201526024015b60405180910390fd5b61003f816105f7565b506100ca6040518060400160405280601181526020017055532054726561737572792042696c6c7360781b8152506040518060400160405280601081526020016f476f7665726e6d656e7420426f6e647360801b8152506040518060400160405280600d81526020016c5472656173757279204465736b60981b81525061020861064660201b60201c565b5061015e6040518060400160405280601c81526020017f546f6b656e697a6564205265616c2045737461746520496e636f6d65000000008152506040518060400160405280600b81526020016a5265616c2045737461746560a81b8152506040518060400160405280600f81526020016e2ab93130b7102cb4b2b6321029a82b60891b8152506102e461064660201b60201c565b506101ed6040518060400160405280601381526020017f4554482056616c696461746f72205969656c6400000000000000000000000000815250604051806040016040528060078152602001665374616b696e6760c81b8152506040518060400160405280600e81526020016d15985b1a59185d1bdc88141bdbdb60921b81525061018661064660201b60201c565b5061027a6040518060400160405280601381526020017f425443204d696e696e672043617368666c6f7700000000000000000000000000815250604051806040016040528060068152602001654d696e696e6760d01b8152506040518060400160405280600d81526020016c0486173687261746520436f6f7609c1b81525061049c61064660201b60201c565b506103136040518060400160405280601481526020017f5072697661746520437265646974204e6f7465730000000000000000000000008152506040518060400160405280600e81526020016d141c9a5d985d194810dc99591a5d60921b8152506040518060400160405280601181526020017021b932b234ba1027b934b3b4b730ba37b960791b81525061038e61064660201b60201c565b506103a56040518060400160405280601981526020017f537461626c65636f696e204261736973205374726174656779000000000000008152506040518060400160405280600e81526020016d13585c9ad95d0813995d5d1c985b60921b8152506040518060400160405280600a8152602001694261736973204465736b60b01b8152506102a861064660201b60201c565b5061043b6040518060400160405280601381526020017f44654669204c656e64696e67204261736b6574000000000000000000000000008152506040518060400160405280600b81526020016a1119519a4810dc99591a5d60aa1b815250604051806040016040528060118152602001702632b73234b7339020b63637b1b0ba37b960791b81525061023a61064660201b60201c565b506104c96040518060400160405280601381526020017f47505520436f6d7075746520526576656e75650000000000000000000000000081525060405180604001604052806007815260200166436f6d7075746560c81b8152506040518060400160405280600d81526020016c105248125b999c9848141bdbdb609a1b81525061052861064660201b60201c565b5061055d6040518060400160405280601681526020017f4469766964656e6420457175697479204261736b6574000000000000000000008152506040518060400160405280600d81526020016c5075626c69632045717569747960981b8152506040518060400160405280600d81526020016c4469766964656e64204465736b60981b8152506101e061064660201b60201c565b506105f16040518060400160405280601681526020017f546f6b656e697a6564204d6f6e6579204d61726b6574000000000000000000008152506040518060400160405280600c81526020016b135bdb995e4813585c9ad95d60a21b8152506040518060400160405280600e81526020016d4c6971756964697479204465736b60901b8152506101bd61064660201b60201c565b506109cd565b5f80546001600160a01b038381166001600160a01b0319831681178455604051919092169283917f8be0079c531659141344cd1fd0a4f28419497f9722a3daafe3b4186f6b6457e09190a35050565b5f61271061ffff8316111561069d5760405162461bcd60e51b815260206004820152601460248201527f6d61726b65743a2061707220746f6f2068696768000000000000000000000000604482015260640161002d565b5060028054906001905f6106b183856107e6565b90915550506040805160e08101825282815260208082018881528284018890526060830187905261ffff8616608084015265ffffffffffff421660a0840152600160c084018190525f868152600390935293909120825181559051919290919082019061071e90826108a3565b506040820151600282019061073390826108a3565b506060820151600382019061074890826108a3565b5060808201516004909101805460a084015160c0909401511515680100000000000000000260ff60401b1965ffffffffffff90951662010000026001600160401b031990921661ffff90941693909317179290921617905560405181907f32f4e5bb63a235152c0bbc0597aece94ce6b9ccd77554f64a45974c937e832b8906107d69088908890889061098b565b60405180910390a2949350505050565b8082018082111561080557634e487b7160e01b5f52601160045260245ffd5b92915050565b634e487b7160e01b5f52604160045260245ffd5b600181811c9082168061083357607f821691505b60208210810361085157634e487b7160e01b5f52602260045260245ffd5b50919050565b601f82111561089e57805f5260205f20601f840160051c8101602085101561087c5750805b601f840160051c820191505b8181101561089b575f8155600101610888565b50505b505050565b81516001600160401b038111156108bc576108bc61080b565b6108d0816108ca845461081f565b84610857565b6020601f821160018114610902575f83156108eb5750848201515b5f19600385901b1c1916600184901b17845561089b565b5f84815260208120601f198516915b828110156109315787850151825560209485019460019092019101610911565b508482101561094e57868401515f19600387901b60f8161c191681555b50505050600190811b01905550565b5f81518084528060208401602086015e5f602082860101526020601f19601f83011685010191505092915050565b606081525f61099d606083018661095d565b82810360208401526109af818661095d565b905082810360408401526109c3818561095d565b9695505050505050565b6115b0806109da5f395ff3fe608060405234801561000f575f5ffd5b50600436106100fb575f3560e01c80638106208011610093578063c29b2f2011610063578063c29b2f2014610274578063e0f6ef8714610289578063f2fde38b14610292578063fbfa77cf146102a5575f5ffd5b806381062080146101fa57806382afd23b1461020d5780638da5cb5b14610230578063b9db15b414610254575f5ffd5b806346cf5f06116100ce57806346cf5f06146101a35780636817031b146101b6578063715018a6146101c9578063740d67cb146101d1575f5ffd5b80631e578bae146100ff578063203b75b714610114578063344f3074146101665780633945c08014610187575b5f5ffd5b61011261010d3660046110c1565b6102b8565b005b6101486101223660046110c1565b600560209081525f928352604080842090915290825290205467ffffffffffffffff1681565b60405167ffffffffffffffff90911681526020015b60405180910390f35b61017961017436600461113f565b6104c6565b60405190815260200161015d565b61019061271081565b60405161ffff909116815260200161015d565b6101126101b13660046111ee565b610579565b6101126101c4366004611218565b6106fc565b6101126107b0565b6101486101df366004611238565b60046020525f908152604090205467ffffffffffffffff1681565b61011261020836600461124f565b6107c3565b61022061021b366004611238565b61088a565b604051901515815260200161015d565b5f546001600160a01b03165b6040516001600160a01b03909116815260200161015d565b610267610262366004611238565b6108b9565b60405161015d919061133e565b61027c610b64565b60405161015d9190611350565b61017960025481565b6101126102a0366004611218565b610e40565b60015461023c906001600160a01b031681565b6001546001600160a01b031633146103175760405162461bcd60e51b815260206004820152601260248201527f6d61726b65743a206f6e6c79207661756c74000000000000000000000000000060448201526064015b60405180910390fd5b60025481106103685760405162461bcd60e51b815260206004820152601760248201527f6d61726b65743a20696e76616c69642070726f64756374000000000000000000604482015260640161030e565b5f81815260036020526040902060040154600160401b900460ff166103cf5760405162461bcd60e51b815260206004820152601860248201527f6d61726b65743a20696e6163746976652070726f647563740000000000000000604482015260640161030e565b5f8181526004602052604081208054600192906103f790849067ffffffffffffffff166113c7565b82546101009290920a67ffffffffffffffff8181021990931691831602179091556001600160a01b0384165f9081526005602090815260408083208684529091528120805460019450909261044e918591166113c7565b82546101009290920a67ffffffffffffffff8181021990931691831602179091555f838152600460209081526040918290205491519190921681528392506001600160a01b038516917f8beb4064f002d1ab1dc35b39ceedaa0addde5baad4ff8ac3b1e24b666c8175e2910160405180910390a35050565b5f61056d88888080601f0160208091040260200160405190810160405280939291908181526020018383808284375f9201919091525050604080516020601f8c018190048102820181019092528a815292508a91508990819084018382808284375f9201919091525050604080516020601f8b0181900481028201810190925289815292508991508890819084018382808284375f92019190915250889250610e7d915050565b98975050505050505050565b60025482106105ca5760405162461bcd60e51b815260206004820152601760248201527f6d61726b65743a20696e76616c69642070726f64756374000000000000000000604482015260640161030e565b61271061ffff821611156106205760405162461bcd60e51b815260206004820152601460248201527f6d61726b65743a2061707220746f6f2068696768000000000000000000000000604482015260640161030e565b5f8281526003602052604090206004810154600160401b900460ff166106885760405162461bcd60e51b815260206004820152601860248201527f6d61726b65743a20696e6163746976652070726f647563740000000000000000604482015260640161030e565b60048101805461ffff841667ffffffffffffffff199091168117620100004265ffffffffffff9081168202929092179384905560408051938452930416602082015284917f872749aed0dd279bbc90e57c701410ed4bb1c15b2354f9303a06ebd6a9e70911910160405180910390a2505050565b61070461101e565b6001600160a01b03811661075a5760405162461bcd60e51b815260206004820152601260248201527f6d61726b65743a207a65726f207661756c740000000000000000000000000000604482015260640161030e565b6001805473ffffffffffffffffffffffffffffffffffffffff19166001600160a01b0383169081179091556040517fe7ae49f883c825b05681b3e00e8be6fdea9ed2a8a45e4c6ecb9390fc44cce615905f90a250565b6107b861101e565b6107c15f61104a565b565b6107cb61101e565b600254821061081c5760405162461bcd60e51b815260206004820152601760248201527f6d61726b65743a20696e76616c69642070726f64756374000000000000000000604482015260640161030e565b5f82815260036020526040908190206004018054831515600160401b0268ff0000000000000000199091161790555182907f294753ecc63751eea2a69294d96d2d0e5e190f6e4bc85db582e73f8a74e1c6029061087e90841515815260200190565b60405180910390a25050565b5f600254821080156108b357505f82815260036020526040902060040154600160401b900460ff165b92915050565b6109036040518060e001604052805f81526020016060815260200160608152602001606081526020015f61ffff1681526020015f65ffffffffffff1681526020015f151581525090565b60025482106109545760405162461bcd60e51b815260206004820152601760248201527f6d61726b65743a20696e76616c69642070726f64756374000000000000000000604482015260640161030e565b60035f8381526020019081526020015f206040518060e00160405290815f8201548152602001600182018054610989906113e7565b80601f01602080910402602001604051908101604052809291908181526020018280546109b5906113e7565b8015610a005780601f106109d757610100808354040283529160200191610a00565b820191905f5260205f20905b8154815290600101906020018083116109e357829003601f168201915b50505050508152602001600282018054610a19906113e7565b80601f0160208091040260200160405190810160405280929190818152602001828054610a45906113e7565b8015610a905780601f10610a6757610100808354040283529160200191610a90565b820191905f5260205f20905b815481529060010190602001808311610a7357829003601f168201915b50505050508152602001600382018054610aa9906113e7565b80601f0160208091040260200160405190810160405280929190818152602001828054610ad5906113e7565b8015610b205780601f10610af757610100808354040283529160200191610b20565b820191905f5260205f20905b815481529060010190602001808311610b0357829003601f168201915b50505091835250506004919091015461ffff8116602083015262010000810465ffffffffffff166040830152600160401b900460ff16151560609091015292915050565b606060025467ffffffffffffffff811115610b8157610b8161141f565b604051908082528060200260200182016040528015610bfc57816020015b610be96040518060e001604052805f81526020016060815260200160608152602001606081526020015f61ffff1681526020015f65ffffffffffff1681526020015f151581525090565b815260200190600190039081610b9f5790505b5090505f5b600254811015610e3c5760035f8281526020019081526020015f206040518060e00160405290815f8201548152602001600182018054610c40906113e7565b80601f0160208091040260200160405190810160405280929190818152602001828054610c6c906113e7565b8015610cb75780601f10610c8e57610100808354040283529160200191610cb7565b820191905f5260205f20905b815481529060010190602001808311610c9a57829003601f168201915b50505050508152602001600282018054610cd0906113e7565b80601f0160208091040260200160405190810160405280929190818152602001828054610cfc906113e7565b8015610d475780601f10610d1e57610100808354040283529160200191610d47565b820191905f5260205f20905b815481529060010190602001808311610d2a57829003601f168201915b50505050508152602001600382018054610d60906113e7565b80601f0160208091040260200160405190810160405280929190818152602001828054610d8c906113e7565b8015610dd75780601f10610dae57610100808354040283529160200191610dd7565b820191905f5260205f20905b815481529060010190602001808311610dba57829003601f168201915b50505091835250506004919091015461ffff8116602083015262010000810465ffffffffffff166040830152600160401b900460ff1615156060909101528251839083908110610e2957610e29611433565b6020908102919091010152600101610c01565b5090565b610e4861101e565b6001600160a01b038116610e7157604051631e4fbdf760e01b81525f600482015260240161030e565b610e7a8161104a565b50565b5f61271061ffff83161115610ed45760405162461bcd60e51b815260206004820152601460248201527f6d61726b65743a2061707220746f6f2068696768000000000000000000000000604482015260640161030e565b5060028054906001905f610ee88385611447565b90915550506040805160e08101825282815260208082018881528284018890526060830187905261ffff8616608084015265ffffffffffff421660a0840152600160c084018190525f8681526003909352939091208251815590519192909190820190610f5590826114a6565b5060408201516002820190610f6a90826114a6565b5060608201516003820190610f7f90826114a6565b5060808201516004909101805460a084015160c0909401511515600160401b0268ff00000000000000001965ffffffffffff909516620100000267ffffffffffffffff1990921661ffff90941693909317179290921617905560405181907f32f4e5bb63a235152c0bbc0597aece94ce6b9ccd77554f64a45974c937e832b89061100e90889088908890611561565b60405180910390a2949350505050565b5f546001600160a01b031633146107c15760405163118cdaa760e01b815233600482015260240161030e565b5f80546001600160a01b0383811673ffffffffffffffffffffffffffffffffffffffff19831681178455604051919092169283917f8be0079c531659141344cd1fd0a4f28419497f9722a3daafe3b4186f6b6457e09190a35050565b80356001600160a01b03811681146110bc575f5ffd5b919050565b5f5f604083850312156110d2575f5ffd5b6110db836110a6565b946020939093013593505050565b5f5f83601f8401126110f9575f5ffd5b50813567ffffffffffffffff811115611110575f5ffd5b602083019150836020828501011115611127575f5ffd5b9250929050565b803561ffff811681146110bc575f5ffd5b5f5f5f5f5f5f5f6080888a031215611155575f5ffd5b873567ffffffffffffffff81111561116b575f5ffd5b6111778a828b016110e9565b909850965050602088013567ffffffffffffffff811115611196575f5ffd5b6111a28a828b016110e9565b909650945050604088013567ffffffffffffffff8111156111c1575f5ffd5b6111cd8a828b016110e9565b90945092506111e090506060890161112e565b905092959891949750929550565b5f5f604083850312156111ff575f5ffd5b8235915061120f6020840161112e565b90509250929050565b5f60208284031215611228575f5ffd5b611231826110a6565b9392505050565b5f60208284031215611248575f5ffd5b5035919050565b5f5f60408385031215611260575f5ffd5b8235915060208301358015158114611276575f5ffd5b809150509250929050565b5f81518084528060208401602086015e5f602082860101526020601f19601f83011685010191505092915050565b805182525f602082015160e060208501526112cd60e0850182611281565b9050604083015184820360408601526112e68282611281565b915050606083015184820360608601526113008282611281565b91505061ffff608084015116608085015265ffffffffffff60a08401511660a085015260c083015161133660c086018215159052565b509392505050565b602081525f61123160208301846112af565b5f602082016020835280845180835260408501915060408160051b8601019250602086015f5b828110156113a757603f198786030184526113928583516112af565b94506020938401939190910190600101611376565b50929695505050505050565b634e487b7160e01b5f52601160045260245ffd5b67ffffffffffffffff81811683821601908111156108b3576108b36113b3565b600181811c908216806113fb57607f821691505b60208210810361141957634e487b7160e01b5f52602260045260245ffd5b50919050565b634e487b7160e01b5f52604160045260245ffd5b634e487b7160e01b5f52603260045260245ffd5b808201808211156108b3576108b36113b3565b601f8211156114a157805f5260205f20601f840160051c8101602085101561147f5750805b601f840160051c820191505b8181101561149e575f815560010161148b565b50505b505050565b815167ffffffffffffffff8111156114c0576114c061141f565b6114d4816114ce84546113e7565b8461145a565b6020601f821160018114611506575f83156114ef5750848201515b5f19600385901b1c1916600184901b17845561149e565b5f84815260208120601f198516915b828110156115355787850151825560209485019460019092019101611515565b508482101561155257868401515f19600387901b60f8161c191681555b50505050600190811b01905550565b606081525f6115736060830186611281565b82810360208401526115858186611281565b905082810360408401526115998185611281565b969550505050505056fea164736f6c634300081b000a",
  "devdoc": {
    "errors": {
      "OwnableInvalidOwner(address)": [
        {
          "details": "The owner is not a valid owner account. (eg. `address(0)`)"
        }
      ],
      "OwnableUnauthorizedAccount(address)": [
        {
          "details": "The caller account is not authorized to perform an operation."
        }
      ]
    },
    "kind": "dev",
    "methods": {
      "owner()": {
        "details": "Returns the address of the current owner."
      },
      "renounceOwnership()": {
        "details": "Leaves the contract without owner. It will not be possible to call `onlyOwner` functions. Can only be called by the current owner. NOTE: Renouncing ownership will leave the contract without an owner, thereby disabling any functionality that is only available to the owner."
      },
      "transferOwnership(address)": {
        "details": "Transfers ownership of the contract to a new account (`newOwner`). Can only be called by the current owner."
      }
    },
    "version": 1
  },
  "userdoc": {
    "kind": "user",
    "methods": {},
    "version": 1
  },
  "storageLayout": {
    "storage": [
      {
        "astId": 42403,
        "contract": "contracts/YieldProductMarket.sol:YieldProductMarket",
        "label": "_owner",
        "offset": 0,
        "slot": "0",
        "type": "t_address"
      },
      {
        "astId": 43591,
        "contract": "contracts/YieldProductMarket.sol:YieldProductMarket",
        "label": "vault",
        "offset": 0,
        "slot": "1",
        "type": "t_address"
      },
      {
        "astId": 43593,
        "contract": "contracts/YieldProductMarket.sol:YieldProductMarket",
        "label": "productCount",
        "offset": 0,
        "slot": "2",
        "type": "t_uint256"
      },
      {
        "astId": 43598,
        "contract": "contracts/YieldProductMarket.sol:YieldProductMarket",
        "label": "_products",
        "offset": 0,
        "slot": "3",
        "type": "t_mapping(t_uint256,t_struct(Product)43586_storage)"
      },
      {
        "astId": 43602,
        "contract": "contracts/YieldProductMarket.sol:YieldProductMarket",
        "label": "depositCountByProduct",
        "offset": 0,
        "slot": "4",
        "type": "t_mapping(t_uint256,t_uint64)"
      },
      {
        "astId": 43608,
        "contract": "contracts/YieldProductMarket.sol:YieldProductMarket",
        "label": "userDepositCount",
        "offset": 0,
        "slot": "5",
        "type": "t_mapping(t_address,t_mapping(t_uint256,t_uint64))"
      }
    ],
    "types": {
      "t_address": {
        "encoding": "inplace",
        "label": "address",
        "numberOfBytes": "20"
      },
      "t_bool": {
        "encoding": "inplace",
        "label": "bool",
        "numberOfBytes": "1"
      },
      "t_mapping(t_address,t_mapping(t_uint256,t_uint64))": {
        "encoding": "mapping",
        "key": "t_address",
        "label": "mapping(address => mapping(uint256 => uint64))",
        "numberOfBytes": "32",
        "value": "t_mapping(t_uint256,t_uint64)"
      },
      "t_mapping(t_uint256,t_struct(Product)43586_storage)": {
        "encoding": "mapping",
        "key": "t_uint256",
        "label": "mapping(uint256 => struct YieldProductMarket.Product)",
        "numberOfBytes": "32",
        "value": "t_struct(Product)43586_storage"
      },
      "t_mapping(t_uint256,t_uint64)": {
        "encoding": "mapping",
        "key": "t_uint256",
        "label": "mapping(uint256 => uint64)",
        "numberOfBytes": "32",
        "value": "t_uint64"
      },
      "t_string_storage": {
        "encoding": "bytes",
        "label": "string",
        "numberOfBytes": "32"
      },
      "t_struct(Product)43586_storage": {
        "encoding": "inplace",
        "label": "struct YieldProductMarket.Product",
        "members": [
          {
            "astId": 43573,
            "contract": "contracts/YieldProductMarket.sol:YieldProductMarket",
            "label": "id",
            "offset": 0,
            "slot": "0",
            "type": "t_uint256"
          },
          {
            "astId": 43575,
            "contract": "contracts/YieldProductMarket.sol:YieldProductMarket",
            "label": "name",
            "offset": 0,
            "slot": "1",
            "type": "t_string_storage"
          },
          {
            "astId": 43577,
            "contract": "contracts/YieldProductMarket.sol:YieldProductMarket",
            "label": "category",
            "offset": 0,
            "slot": "2",
            "type": "t_string_storage"
          },
          {
            "astId": 43579,
            "contract": "contracts/YieldProductMarket.sol:YieldProductMarket",
            "label": "issuer",
            "offset": 0,
            "slot": "3",
            "type": "t_string_storage"
          },
          {
            "astId": 43581,
            "contract": "contracts/YieldProductMarket.sol:YieldProductMarket",
            "label": "currentAprBps",
            "offset": 0,
            "slot": "4",
            "type": "t_uint16"
          },
          {
            "astId": 43583,
            "contract": "contracts/YieldProductMarket.sol:YieldProductMarket",
            "label": "lastRateUpdate",
            "offset": 2,
            "slot": "4",
            "type": "t_uint48"
          },
          {
            "astId": 43585,
            "contract": "contracts/YieldProductMarket.sol:YieldProductMarket",
            "label": "active",
            "offset": 8,
            "slot": "4",
            "type": "t_bool"
          }
        ],
        "numberOfBytes": "160"
      },
      "t_uint16": {
        "encoding": "inplace",
        "label": "uint16",
        "numberOfBytes": "2"
      },
      "t_uint256": {
        "encoding": "inplace",
        "label": "uint256",
        "numberOfBytes": "32"
      },
      "t_uint48": {
        "encoding": "inplace",
        "label": "uint48",
        "numberOfBytes": "6"
      },
      "t_uint64": {
        "encoding": "inplace",
        "label": "uint64",
        "numberOfBytes": "8"
      }
    }
  }
}